{
  "contractName": "Blood",
  "abi": [
    {
      "anonymous": false,
      "inputs": [
        {
          "indexed": true,
          "internalType": "address",
          "name": "donorAddress",
          "type": "address"
        },
        {
          "indexed": false,
          "internalType": "string",
          "name": "bloodType",
          "type": "string"
        }
      ],
      "name": "BloodTypeRegistered",
      "type": "event"
    },
    {
      "constant": true,
      "inputs": [
        {
          "internalType": "uint256",
          "name": "",
          "type": "uint256"
        }
      ],
      "name": "donorAddresses",
      "outputs": [
        {
          "internalType": "address",
          "name": "",
          "type": "address"
        }
      ],
      "payable": false,
      "stateMutability": "view",
      "type": "function"
    },
    {
      "constant": true,
      "inputs": [
        {
          "internalType": "address",
          "name": "",
          "type": "address"
        }
      ],
      "name": "donors",
      "outputs": [
        {
          "internalType": "address",
          "name": "donorAddress",
          "type": "address"
        },
        {
          "internalType": "string",
          "name": "bloodType",
          "type": "string"
        }
      ],
      "payable": false,
      "stateMutability": "view",
      "type": "function"
    },
    {
      "constant": false,
      "inputs": [
        {
          "internalType": "string",
          "name": "_bloodType",
          "type": "string"
        }
      ],
      "name": "registerBlood",
      "outputs": [],
      "payable": false,
      "stateMutability": "nonpayable",
      "type": "function"
    },
    {
      "constant": true,
      "inputs": [
        {
          "internalType": "address",
          "name": "_donorAddress",
          "type": "address"
        }
      ],
      "name": "getBloodType",
      "outputs": [
        {
          "internalType": "string",
          "name": "",
          "type": "string"
        }
      ],
      "payable": false,
      "stateMutability": "view",
      "type": "function"
    },
    {
      "constant": true,
      "inputs": [],
      "name": "getDonorCount",
      "outputs": [
        {
          "internalType": "uint256",
          "name": "",
          "type": "uint256"
        }
      ],
      "payable": false,
      "stateMutability": "view",
      "type": "function"
    },
    {
      "constant": true,
      "inputs": [
        {
          "internalType": "uint256",
          "name": "index",
          "type": "uint256"
        }
      ],
      "name": "getDonorAddress",
      "outputs": [
        {
          "internalType": "address",
          "name": "",
          "type": "address"
        }
      ],
      "payable": false,
      "stateMutability": "view",
      "type": "function"
    }
  ],
  "bytecode": "0x608060405234801561001057600080fd5b50610ae8806100206000396000f3fe608060405234801561001057600080fd5b50600436106100625760003560e01c80632b2aee5d1461006757806369bc2f1e146100d5578063ba872e62146100f3578063ca0cdea814610161578063dc983d1f14610251578063f8c9a9da1461030e575b600080fd5b6100936004803603602081101561007d57600080fd5b81019080803590602001909291905050506103c9565b604051808273ffffffffffffffffffffffffffffffffffffffff1673ffffffffffffffffffffffffffffffffffffffff16815260200191505060405180910390f35b6100dd610405565b6040518082815260200191505060405180910390f35b61011f6004803603602081101561010957600080fd5b8101908080359060200190929190505050610412565b604051808273ffffffffffffffffffffffffffffffffffffffff1673ffffffffffffffffffffffffffffffffffffffff16815260200191505060405180910390f35b6101a36004803603602081101561017757600080fd5b81019080803573ffffffffffffffffffffffffffffffffffffffff1690602001909291905050506104cd565b604051808373ffffffffffffffffffffffffffffffffffffffff1673ffffffffffffffffffffffffffffffffffffffff16815260200180602001828103825283818151815260200191508051906020019080838360005b838110156102155780820151818401526020810190506101fa565b50505050905090810190601f1680156102425780820380516001836020036101000a031916815260200191505b50935050505060405180910390f35b6102936004803603602081101561026757600080fd5b81019080803573ffffffffffffffffffffffffffffffffffffffff1690602001909291905050506105a9565b6040518080602001828103825283818151815260200191508051906020019080838360005b838110156102d35780820151818401526020810190506102b8565b50505050905090810190601f1680156103005780820380516001836020036101000a031916815260200191505b509250505060405180910390f35b6103c76004803603602081101561032457600080fd5b810190808035906020019064010000000081111561034157600080fd5b82018360208201111561035357600080fd5b8035906020019184600183028401116401000000008311171561037557600080fd5b91908080601f016020809104026020016040519081016040528093929190818152602001838380828437600081840152601f19601f820116905080830192505050505050509192919290505050610757565b005b600181815481106103d657fe5b906000526020600020016000915054906101000a900473ffffffffffffffffffffffffffffffffffffffff1681565b6000600180549050905090565b6000600180549050821061048e576040517f08c379a00000000000000000000000000000000000000000000000000000000081526004018080602001828103825260138152602001807f496e646578206f7574206f6620626f756e64730000000000000000000000000081525060200191505060405180910390fd5b6001828154811061049b57fe5b9060005260206000200160009054906101000a900473ffffffffffffffffffffffffffffffffffffffff169050919050565b60006020528060005260406000206000915090508060000160009054906101000a900473ffffffffffffffffffffffffffffffffffffffff1690806001018054600181600116156101000203166002900480601f01602080910402602001604051908101604052809291908181526020018280546001816001161561010002031660029004801561059f5780601f106105745761010080835404028352916020019161059f565b820191906000526020600020905b81548152906001019060200180831161058257829003601f168201915b5050505050905082565b606060008060008473ffffffffffffffffffffffffffffffffffffffff1673ffffffffffffffffffffffffffffffffffffffff16815260200190815260200160002060010180546001816001161561010002031660029004905011610676576040517f08c379a00000000000000000000000000000000000000000000000000000000081526004018080602001828103825260198152602001807f426c6f6f642074797065206e6f7420726567697374657265640000000000000081525060200191505060405180910390fd5b6000808373ffffffffffffffffffffffffffffffffffffffff1673ffffffffffffffffffffffffffffffffffffffff1681526020019081526020016000206001018054600181600116156101000203166002900480601f01602080910402602001604051908101604052809291908181526020018280546001816001161561010002031660029004801561074b5780601f106107205761010080835404028352916020019161074b565b820191906000526020600020905b81548152906001019060200180831161072e57829003601f168201915b50505050509050919050565b60008060003373ffffffffffffffffffffffffffffffffffffffff1673ffffffffffffffffffffffffffffffffffffffff16815260200190815260200160002060010180546001816001161561010002031660029004905014610822576040517f08c379a000000000000000000000000000000000000000000000000000000000815260040180806020018281038252601d8152602001807f426c6f6f64207479706520616c7265616479207265676973746572656400000081525060200191505060405180910390fd5b60405180604001604052803373ffffffffffffffffffffffffffffffffffffffff168152602001828152506000803373ffffffffffffffffffffffffffffffffffffffff1673ffffffffffffffffffffffffffffffffffffffff16815260200190815260200160002060008201518160000160006101000a81548173ffffffffffffffffffffffffffffffffffffffff021916908373ffffffffffffffffffffffffffffffffffffffff16021790555060208201518160010190805190602001906108ee929190610a0e565b5090505060013390806001815401808255809150509060018203906000526020600020016000909192909190916101000a81548173ffffffffffffffffffffffffffffffffffffffff021916908373ffffffffffffffffffffffffffffffffffffffff160217905550503373ffffffffffffffffffffffffffffffffffffffff167fdd338b214eb031ac96018e30ba1c7f980ba115163b5a099683538ca878d150dc826040518080602001828103825283818151815260200191508051906020019080838360005b838110156109d15780820151818401526020810190506109b6565b50505050905090810190601f1680156109fe5780820380516001836020036101000a031916815260200191505b509250505060405180910390a250565b828054600181600116156101000203166002900490600052602060002090601f016020900481019282601f10610a4f57805160ff1916838001178555610a7d565b82800160010185558215610a7d579182015b82811115610a7c578251825591602001919060010190610a61565b5b509050610a8a9190610a8e565b5090565b610ab091905b80821115610aac576000816000905550600101610a94565b5090565b9056fea265627a7a723158201512ce6d7cb52ceedd88e6650a305f10353bd36198d58ce17d3726d63bc008a164736f6c63430005100032",
  "source": "// SPDX-License-Identifier: MIT\r\npragma solidity ^0.5.16;\r\n\r\ncontract Blood {\r\n    // Struct pour représenter un donneur\r\n    struct Donor {\r\n        address donorAddress;\r\n        string bloodType;\r\n    }\r\n\r\n    // Mapping pour associer une adresse au type de sang d'un donneur\r\n    mapping(address => Donor) public donors;\r\n\r\n    // Tableau pour stocker les adresses des donneurs\r\n    address[] public donorAddresses;\r\n\r\n    // Événement pour l'enregistrement du type de sang\r\n    event BloodTypeRegistered(address indexed donorAddress, string bloodType);\r\n\r\n    // Fonction pour enregistrer un donneur\r\n    function registerBlood(string memory _bloodType) public {\r\n        require(bytes(donors[msg.sender].bloodType).length == 0, \"Blood type already registered\");\r\n\r\n        donors[msg.sender] = Donor({\r\n            donorAddress: msg.sender,\r\n            bloodType: _bloodType\r\n        });\r\n\r\n        // Ajout de l'adresse au tableau des donneurs\r\n        donorAddresses.push(msg.sender);\r\n\r\n        emit BloodTypeRegistered(msg.sender, _bloodType);\r\n    }\r\n\r\n    // Fonction pour obtenir le type de sang d'un donneur\r\n    function getBloodType(address _donorAddress) public view returns (string memory) {\r\n        require(bytes(donors[_donorAddress].bloodType).length > 0, \"Blood type not registered\");\r\n        return donors[_donorAddress].bloodType;\r\n    }\r\n\r\n    // Fonction pour obtenir le nombre total de donneurs\r\n    function getDonorCount() public view returns (uint) {\r\n        return donorAddresses.length;\r\n    }\r\n\r\n    // Fonction pour obtenir l'adresse d'un donneur par index\r\n    function getDonorAddress(uint index) public view returns (address) {\r\n        require(index < donorAddresses.length, \"Index out of bounds\");\r\n        return donorAddresses[index];\r\n    }\r\n}\r\n",
  "sourcePath": "C:\\Users\\Dojj\\blood bank\\contracts\\blood.sol",
  "compiler": {
    "name": "solc",
    "version": "0.5.16+commit.9c3226ce.Emscripten.clang"
  },
  "schemaVersion": "3.4.16",
  "updatedAt": "2024-04-29T20:37:34.850Z",
  "networkType": "ethereum",
  "devdoc": {
    "methods": {}
  },
  "userdoc": {
    "methods": {}
  }
}